:020000040800F2
:10000000C00E0020C1010008715A000869540008A0
:100010006D5A0008690A00088569000800000000A0
:10002000000000000000000000000000F15B00087C
:10003000B90B000800000000ED5B0008F55B00084C
:10004000DB010008DB010008DB010008DB01000820
:10005000DB010008DB010008DB010008DB01000810
:10006000DB010008DB010008DB010008DB01000800
:10007000950B0008DB010008DB010008DB0100082C
:10008000DB010008DB0100083D0A0008DB01000875
:10009000DB010008DB010008DB010008DB010008D0
:1000A000DB010008DB010008DB010008DB010008C0
:1000B000DB010008DB010008DB010008DB010008B0
:1000C000DB010008DB010008DB010008DB010008A0
:1000D000DB01000861690008DB0100086D690008A8
:1000E000BD0B0008DB010008DB010008DB01000894
:1000F000E55C0008D95C0008DB010008DB010008B2
:10010000DB010008DB010008DB010008DB0100085F
:10011000DB010008DB010008DB010008DB0100084F
:10012000A10B0008DB010008AD0B0008DB01000893
:10013000DB010008DB010008DB010008DB0100082F
:10014000DB010008DB010008DB010008DB0100081F
:10015000DB010008DB010008DB010008DB0100080F
:10016000DB010008DB010008DB010008DB010008FF
:10017000DB010008DB010008DB01000800000000D3
:10018000DB010008DB010008DB010008DB010008DF
:10019000DB010008DB010008DB010008DB010008CF
:1001A0000000000000000000DB010008DFF80CD0B8
:1001B00000F0DEFB00480047156F0008C00E00206D
:1001C0000648804706480047FEE7FEE7FEE7FEE7F1
:1001D000FEE7FEE7FEE7FEE7FEE7FEE7C55C000898
:1001E000AD0100082DE9F05F0546002092469B46D0
:1001F00088460646814640241BE02846414647463D
:10020000224600F09AF953465A46C01A914110D33B
:1002100011461846224600F081F92D1A67EB0108B5
:100220004F4622460120002100F078F917EB000923
:100230004E41201EA4F10104DFDC484631462A4627
:100240004346BDE8F09F40EA01039B0703D009E065
:1002500008C9121F08C0042AFAD203E011F8013BB2
:1002600000F8013B521EF9D27047D2B201E000F80B
:10027000012B491EFBD270470022F6E710B513464A
:100280000A4604461946FFF7F0FF204610BD00005D
:1002900070B50F4D00B92868002412E00A4602E04C
:1002A0009E4203D0521C1378002BF9D1DAB22243BC
:1002B00005D02BB124B1002100F8011B04E0044655
:1002C000401C0678002EE9D12860204670BD000051
:1002D000000000202DE9F04791460F468046044675
:1002E000002614F8015B2DB100F04AF90068405D6A
:1002F000C007F6D12B2D02D02D2D18D0641E4A46F2
:100300003946204600F040F927B13968A14201D1B1
:10031000C7F8008071054FF002040BD54042002859
:1003200003DD07F029FB0460A007BDE8F08746F471
:100330008066E4E70028F8DA07F01EFB04606FF03F
:100340000040F2E72DE9FE4F804681EA0300C00F2E
:100350000C46009021F0004123F00045B8EB02006C
:10036000A94105D24046214690461C460B4602460E
:1003700023F00040104347D0270DC7F30A00C3F312
:100380000A510290401A019040286BDAC3F313001F
:1003900040F4801B0098924620B10023D2EB030A60
:1003A00063EB0B0B01985946C0F14002504600F038
:1003B000B5F806460D4650465946019A00F0CDF86C
:1003C00010EB08006141002487EA115284EAE773C8
:1003D0001A4340D0009A62B3019A012A4FEA0752A9
:1003E00015DC001B61EB02014FF0004202EA0752EC
:1003F000CDE90042001C41F5801132462B4600F049
:1004000058F903B0BDE8F08F40462146F9E7001BDC
:1004100061EB0201001C41F5801300185B412018BC
:10042000A2F5001747EB030140EAD570B6196D41FC
:1004300011E06D084FEA360645EAC0754FEA0752EB
:10044000001B61EB0201001C41F5801149084FEAD5
:1004500030000019514132462B4603B0BDE8F04F41
:1004600000F018B90098012240000023D0EB0202EE
:1004700063EBE073009821464FEAE074B8EB0000AC
:1004800061EB0401E9E783F000435BE781F00041A1
:1004900058E700F0004230F000400AD0C10D01F5ED
:1004A0006071C0F3160042EA0151C20840071143CF
:1004B000704700200146704701F0004330B421F03E
:1004C000004150EA010206D00A0DA2F56072C1F3A4
:1004D0001301002A02DC30BC00207047440F44EABC
:1004E000C104C100E01830BC00EBC25000F09BB862
:1004F00030B50B46014600202022012409E021FAF4
:1005000002F59D4205D303FA02F5491B04FA02F5F0
:100510002844151EA2F10102F1DC30BD202A04DBC3
:10052000203A00FA02F1002070479140C2F1200306
:1005300020FA03F3194390407047202A04DB203A45
:1005400021FA02F00021704721FA02F3D040C2F1F3
:1005500020029140084319467047202A06DBCB173A
:10056000203A41FA02F043EAE07306E041FA02F36E
:10057000D040C2F120029140084319467047000064
:1005800000487047FC8200082DE9F05F8246007841
:10059000002715468B460AF10104B946302801D0E0
:1005A0009DB113E014F8010B0127782803D05828D7
:1005B00001D045B10AE00DB1102D07D1002710255B
:1005C00014F8010B02E0082500E00A250026B046D9
:1005D0000EE005FB080005FB06F1012701EB1046C4
:1005E0001FFA80F8B6F5803F00D3B94614F8010B26
:1005F000294600F0CFF90028EBDABBF1000F05D057
:100600000FB1641E00E05446CBF80040B9F1000F72
:1006100006D007F0B1F902210160C81EBDE8F09FC5
:1006200048EA0640FAE70029A8BF7047401C490085
:1006300008BF20F00100704710B4B0FA80FC00FA47
:100640000CF050EA010404BF10BC704749B1CCF172
:10065000200421FA04F411FA0CF118BF01212143FE
:100660000843A3EB0C01CB1D4FEA00614FEA1020B9
:1006700042BF002010BC704700EBC350104400295B
:10068000A4BF10BC7047401C490008BF20F0010007
:1006900010BC704710B5141E73F1000408DA401C3A
:1006A00041F1000192185B411A4301D120F0010091
:1006B00010BD2DE9F04D92469B4611B1B1FA81F281
:1006C00002E0B0FA80F220329046FFF727FF04469E
:1006D0000F4640EA0A0041EA0B0153465A460843D6
:1006E00013D0114653EA010019D0C8F14002504618
:1006F000FFF723FF05460E46504659464246FFF790
:100700000DFF084305D0012004E020463946BDE82E
:10071000F08D0020054346EAE0762C4337430A98E3
:100720006305E40AA0EB08000022FD0A44EA4754EE
:100730000A3002D500200146E9E701051019694198
:10074000DDE9084500196941BDE8F04DA2E72DE952
:10075000FE4F81EA030404F0004421F000410094BC
:100760004FF0000B23F0004350EA01045ED052EA40
:1007700003045BD0C3F30A54C1F30A552C44A4F21A
:10078000F3340194A0FB0254C1F3130141F480112E
:10079000C3F3130343F4801301FB024400FB034E35
:1007A000840A970A44EA815447EA8357A4FB0768FE
:1007B00002958D0A05FB07854FEA932C04FB0C5428
:1007C0002705029D4FEA065847EA1637B5EB08059C
:1007D0006EEB070C870E920E47EA811742EA8312EE
:1007E000A7FB0201B6EB0B0164EB00042B0D43EAFF
:1007F0000C335E1844EB1C50DA465146E7FB02010D
:10080000C5F313044FEA0B3343EA14534FEA04329F
:10081000019C43EA0603A4F10C040294009CCDE978
:1008200000B4FFF746FF03B0BDE8F08F002001469B
:10083000F9E72DE9F04D81EA030404F0004B21F0C3
:10084000004514464FF0000A23F0004150EA05022B
:1008500020D054EA01021DD0C5F30A570246C5F361
:100860001303C1F31300C1F30A5640F4801543F497
:100870008013A7EB0608101BD64608F2FD3873EB71
:10088000050002D308F1010801E092185B41B8F1BC
:10089000000F03DA00200146BDE8F08D00204FF480
:1008A0008011064684460EE0171B73EB050705D33F
:1008B000121B63EB050306434CEA010C49084FEA9F
:1008C000300092185B4150EA0107EDD152EA030073
:1008D00012D082EA040083EA0501084305D0101B08
:1008E000AB4106D20122002306E000224FF0004374
:1008F00002E06FF0010253101AEB06004CEB0851B6
:1009000010EB0A0041EB0B01BDE8F04DFFF7C2BE52
:10091000C1F30A52C1F3130140F2FF3341F48011D5
:100920009A4202DA00200146704740F233439A426D
:10093000A2F2334202DC5242FFF7FFBDFFF7EEBDE9
:1009400030B5041E71F1000404DB4FF00044404256
:1009500064EB0101141E73F1000405DB1C464FF02B
:100960000043524263EB0403994208BF904230BDFA
:10097000064C074D06E0E06840F0010394E80700EC
:1009800098471034AC42F6D3FFF714FCD485000826
:10099000F48500083A2800D2303820F02002412A9D
:1009A00001D3A2F13700884201D34FF0FF307047E6
:1009B0000146806B036C026C13F0500F08D0D20616
:1009C00048BF00F0B3BB806BC26C0846104700BF45
:1009D00042F40071016401688A6812F0405F01D03E
:1009E00000F058BB027E002AFAD1CA6A12F4700FD6
:1009F00002D08A685205F3D44A6822F020024A6085
:100A0000016C21F480710164016CC90448BF00F0DD
:100A100041BB016C41F00101016400F03BBB0000EF
:100A2000806B40210164416C41F00401416400F09D
:100A30007DBB0000806B00F077BB000080B540F20A
:100A40007C20C2F2000000F073FB40F2C420C2F22E
:100A5000000000F06DFB40F20C30C2F20000BDE877
:100A6000804000F065BB0000FEE70000002808BFE2
:100A7000704770B584B0044640F2C400C2F2000072
:100A8000031D0ECB0DF1040C8CE80E00B0F8111014
:100A9000067CADF80010C17C45698DF802103EB1AE
:100AA00001F0F8FD401B642888BF002601E000BF6C
:100AB000002601AA07CA26732060BDF80000616005
:100AC000A4F80D009DF80200A260E073256104B057
:100AD000BDE8704070470000F0B585B040F24C545E
:100AE000C2F2000420680068C0064AD50A200490BB
:100AF00044F64440C0F64550039043F25430C4F6E7
:100B00002010029045F25530C5F24120019040F28C
:100B10000450C2F2000001A90D22642304F0E6FB98
:100B2000002000902068E16B026840F2B456009209
:100B30004068C2F200060090009808684168328858
:100B4000C1F58075ACB294421BD040F2B750C2F2EE
:100B500000009442104403D9A91A89B20EE000BFE4
:100B60008FB2C2F5807189B205F03CFBB7F5807F8A
:100B700006D040F2B750C2F20000214605F032FB29
:100B8000358040F24C50C2F2000003F079FE05B00F
:100B9000F0BD000040F21440C2F2000001F058B86D
:100BA00040F25430C2F2000001F052B840F2B430CA
:100BB000C2F2000001F04CB87047000080B54FF45D
:100BC000805001F0C9FB4FF40050BDE8804001F0B7
:100BD000C3BB000072B600BFFEE700002DE9F04382
:100BE00081B00D460968814613290CD31220C1F249
:100BF0000000814207D048F2B830C0F600004FF440
:100C00004F7105F0C1FE68680138042808D2A86851
:100C1000082810D2A8694FEA30410C2918D231E0D7
:100C200048F2B830C0F6000040F23D3105F0ACFEAD
:100C3000A8680828EED348F2B830C0F6000040F2A9
:100C40003E3105F0A1FEA8694FEA30410C2919D3C5
:100C5000B0F5702F12DAB0F5402F13D0B0F5502F49
:100C600010D0B0F5602F0DD048F2B830C0F60000BB
:100C700040F23F3105F088FE04E000BFA0F570208F
:100C80000228F1D22869013804281DD2687D022883
:100C900025D2287D022807D348F2B830C0F60000DC
:100CA00040F2423105F070FED9F800004068C0F310
:100CB0000160DFE800F00321272D00BFE868B0F5F0
:100CC000805F28D22FE000BF48F2B830C0F60000A5
:100CD0004FF4507105F058FE687D0228D9D348F2D0
:100CE000B830C0F6000040F2413105F04DFE287DDD
:100CF0000228D1D2D8E700BFE868B0F5806F0AD2E9
:100D000011E000BFE868B0F5807F04D20BE000BFBF
:100D1000E868402807D348F2B830C0F6000040F237
:100D2000463105F031FEA86940F20108C0F20F0813
:100D300040450CD0E8694FEA3050042807D348F208
:100D4000B830C0F6000040F24B3105F01DFE99F8B6
:100D50003C00012804D1022001B0BDE8F08300BFAF
:100D6000D5F800C00121BCF10A0F89F83C100BD363
:100D70001FFA8CF3590011FA8CF2D9F80010A2F185
:100D80001E0601F10C0206E0D9F800100CEB4C062F
:100D900001F11002634607271468B74024EA0707E9
:100DA0001760AF681468B740274317608A6B002448
:100DB00022F440128A632F696A68AE69CFF6F07434
:100DC000886B04EB075420438863D01B0330C7B201
:100DD000BF0057FA80F01F278C6B874024EA070773
:100DE0008F638F6B03FA00F0384388638868464549
:100DF00020F4702088608B6802D123F4401309E04E
:100E000043EA06008860886820F440108860E8693A
:100E10008B6803438B60287D6B7D4F68002B27F424
:100E2000806718BF07F580674F604B68002823F480
:100E3000805318BF03F58053032A4B6008D0022A61
:100E40000AD0012A14BF01F1200301F1140305E0C7
:100E500001F11C0302E000BF01F11803186840F61D
:100E6000FF7290431860E8681F6842F20432C4F2CF
:100E700001023843A2F54177B942186006D000203C
:100E800089F83C0001B0BDE8F08300BF1220C1F238
:100E90000000844505D0BCF1120F05D0BCF1110F44
:100EA000EDD14FF4000001E04FF4800011680843D9
:100EB0001060002089F83C0001B0BDE8F08300001C
:100EC000704700002DE9F04182B00D4600210191EC
:100ED000296840F2120804461329C1F2000809D318
:100EE000414507D048F28030C0F6000040F28B61E7
:100EF00005F04AFD6868013810280BD2A868082858
:100F000013D294F83C0001281BD1022002B0BDE8A6
:100F1000F08100BF48F28030C0F6000040F28C61E2
:100F200005F032FDA8680828EBD348F28030C0F6FF
:100F3000000040F28D6105F027FD94F83C00012887
:100F4000E3D0286801210A2884F83C100AD381B232
:100F5000490011FA80F22168A2F11E0301F10C028E
:100F600005E000BF216800EB400301F110020726F5
:100F700017689E40B7431760AF68166807FA03F317
:100F8000334313606A68062A0ED802EB8202531FAD
:100F90000A461F2752F8346F9F4026EA070717605A
:100FA00087B207FA03F517E002EB82050C2A83B239
:100FB00006D80A46A5F1230752F8305F05E000BFC6
:100FC0000A46A5F1410752F82C5F1F26BE4025EACC
:100FD000060603FA07F5166042F204331768C4F2F6
:100FE0000103A3F541762F43B142176006D00020DC
:100FF00084F83C0002B0BDE8F08100BF112818BFA2
:10100000404537D11968404521F4800119601968BD
:1010100041F400011960EAD140F26400C2F200001C
:1010200000684DF68361C4F21B31A0FB0101880CFE
:1010300000EB80004000019001980028D7D000BF4D
:1010400001980138019001980028D0D0019801380A
:10105000019001980028CAD00198013801900198A8
:101060000028C4D001980138019001980028E7D1E8
:10107000BDE700BF1228BAD1186820F4000018603C
:10108000186840F480001860002084F83C0002B02A
:10109000BDE8F081016842F20000C4F20100814223
:1010A00040F27000C2F200001AD042F20012C4F204
:1010B0000102914227D1017840F2DC03C2F2000321
:1010C000828903EB4101C389A1F85020A1F8643063
:1010D000028A438AA1F87820A1F88C30811C10E0A4
:1010E0000178828840F2DC03C2F2000323F8112069
:1010F000C28803EB41018A82028943890A858B8772
:10110000411C01220A70417869B18178002908BF29
:10111000704700214170817001780131CAB2092AFB
:1011200088BF0021017070477047000070470000C1
:1011300070B50446006806684568207E022809D21A
:10114000E0690138102811D26069032819D2B0076C
:1011500021D439E048F28030C0F6000040F2B741B7
:1011600005F012FCE06901381028EDD348F2803018
:10117000C0F600004FF4976105F006FC6069032893
:10118000E5D348F28030C0F6000040F2B94105F0E6
:10119000FBFBB00718D515F0200015D0206CC00659
:1011A00003D4206C40F4007020642068816811F042
:1011B000405F02D1217E00296AD02046FFF76AFFF6
:1011C00020686FF012010160700715D515F08000DE
:1011D00012D0206CC00603D4206C40F40050206470
:1011E0002068816811F4401F30D02046FFF768FE68
:1011F00020686FF00C010160F00718BF15F0400087
:1012000014D1B00610D515F0806008BF70BD2068FD
:10121000616C6FF0200541F00201616405602046B9
:10122000FFF784FF2068056070BD00BF206800687C
:10123000C007E6D0206C40F480302064204600F0E7
:1012400011FA20686FF001010160DAE7816B11F497
:10125000401F02D081684905C7D441684905C4D4FC
:10126000816811F0405FC0D1217E0029BDD1416865
:1012700021F080014160206C20F480502064206CBB
:10128000C005B2D4206C40F001002064ADE700BF7F
:10129000C16A11F4700F03D0816849053FF58DAF25
:1012A000416821F020014160206C20F480702064AE
:1012B000206CC0043FF581AF206C40F00100206439
:1012C0007BE70000002804BF01207047F0B581B023
:1012D0000446006842F20001C4F20101884213D0C2
:1012E00042F20011C4F2010188420DD042F2002105
:1012F000C4F20101884207D048F28030C0F60000F5
:101300004FF4A17105F040FB60684FEA30400428BB
:101310001CD2A0684FEA3060042824D22069022839
:101320002CD2207E022834D2A06AB0F1106F3CDAB1
:10133000B0F1806F46DBB0F1C06F57DB69D0B0F120
:10134000E06F66D0B0F1006F63D047E148F28030C3
:10135000C0F6000040F2431105F016FBA0684FEA0A
:1013600030600428DAD348F28030C0F600004FF431
:10137000A27105F009FB20690228D2D348F280301F
:10138000C0F6000040F2451105F0FEFA207E02286A
:10139000CAD348F28030C0F600004FF4A37105F0C4
:1013A000F3FAA06AB0F1106FC2DBB0F1506F11DA3E
:1013B000B0F1306F22DAB0F1106F2AD0B0F1206FA7
:1013C00027D00BE1B0F1007F1EDA10B3B0F1807FBF
:1013D0001FD003E100F1714102291AD3B0F1506F1F
:1013E00017D0B0F1606F14D0F8E000BFB0F1806F9B
:1013F0000FD0B0F1A06F0CD0F0E000BF09D0B0F179
:10140000406F06D0EAE000BF03D0B0F1407F40F06B
:10141000E580E06840F40060B0F5006F40F0ED80DA
:10142000E0690138102880F0F58094F83000022837
:1014300080F0FD806069032880F0058194F8200029
:10144000022807D348F28030C0F600004FF4A6719E
:1014500005F09AFAA06A0127C0F60077B8420CD0CE
:10146000E06A4FEA3070042807D348F28030C0F6B3
:1014700000004FF4A87105F087FA206CC0B3206C0F
:10148000C0063FD4206C41F202118843023042F280
:1014900004312064C4F20101086820F4403008607F
:1014A0000A6894E829001A4326690A60416821F411
:1014B00080714160416841EA06214160416821F044
:1014C00040714160416829434160816821F40061B5
:1014D0008160E168826811438160A16A8268B942D3
:1014E00022F070628260826812D122F0405118E0CE
:1014F000204600F0B9F80020606484F83C00206CBD
:10150000C006BFD50120002184F83C1001B0F0BD19
:1015100011438160816821F040518160E16A8268F5
:1015200011438160816821F0020181608168227E1F
:1015300094F8203041EA42018160FBB1616A0139CF
:10154000082908D348F28030C0F600004FF4F56156
:1015500005F01AFA206841684EF2000241F4006179
:1015600041604168CFF6FF7221F460414160616AD9
:10157000436802EB4131194303E000BF416821F4A5
:1015800000614160C16A002321F47001C162E26917
:101590006169CFF6F073C76A03EB02523A43C26245
:1015A000826822F40072826094F83020836843EAF3
:1015B00042228260826822F480628260826842EA0B
:1015C0008121816000206064216C012262F30101AD
:1015D0002164002184F83C1001B0F0BD48F2803055
:1015E000C0F6000040F2471105F0CEF9E06840F483
:1015F0000060B0F5006F3FF413AF48F28030C0F6E2
:1016000000004FF4A47105F0BFF9E069013810281B
:10161000FFF40BAF48F28030C0F6000040F24911F1
:1016200005F0B2F994F830000228FFF403AF48F255
:101630008030C0F600004FF4A57105F0A5F960698F
:101640000328FFF4FBAE48F28030C0F6000040F201
:101650004B1105F099F994F820000228BFF4F2AE7E
:10166000F8E600007047000070B586B004462168B7
:1016700042F20022C4F2010200209142CDE90400AE
:10168000CDE9020001904DD042F20010C4F20100F9
:1016900081426DD042F20000C4F20100814240F06C
:1016A000B880002643F630000096C4F2020041697B
:1016B00041F480714161416901F4807100910099A8
:1016C0000096016841F001010160006801A900F085
:1016D0000100009000980F2001900320CDE9020640
:1016E0000020C4F2020000F043FE40F2543546F2FE
:1016F0001040C2F20005C4F202004FF48061C5E957
:10170000000605F110004FF400624FF400534FF44F
:10171000807C80E80E104FF40030C5E90266286234
:1017200066E000BF43F630010090C4F202014A694E
:1017300042F480624A614A6902F480620092009A2F
:1017400000900A6842F004020A60096801F004018E
:1017500000910099039000200321C4F20200CDE91A
:10176000011100F5006001A900F002FE49E000BF90
:10177000002643F630000096C4F20200416941F4AD
:1017800000714161416901F4007100910099009676
:10179000016841F001010160006801A900F0010049
:1017A00000900098F02001900320CDE9020600206F
:1017B000C4F2020000F0DCFD46F21040C4F2020068
:1017C00040F2B4353030C2F200054FF000714FF4F2
:1017D00080624FF4006385E8430005F114004FF484
:1017E000005C4FF4807EC5E9036280E808502E62F9
:1017F00028466E6200F00CFB08B1FFF7EBF9A56319
:10180000AC6312200021002200F0D0FF122000F073
:10181000B1FF06B070BD0000F0B581B004460020F5
:101820000090207E154602280E460BD2E06A4FEA51
:101830003070042813D294F83C0001281BD10220F8
:1018400001B0F0BD48F28030C0F6000040F25A51BD
:1018500005F09AF8E06A4FEA30700428EBD348F2BA
:101860008030C0F6000040F25B5105F08DF894F82E
:101870003C000128E3D00120216884F83C008868FE
:10188000C0072AD188684DF6836240F00100886065
:1018900040F26400C2F200000068C4F21B32A0FBF8
:1018A0000202900C00EB400000900098A8B100BF2D
:1018B000009801380090009878B1009801380090A5
:1018C000009850B1009801380090009828B1009815
:1018D0000138009000980028EAD18868C00503D537
:1018E000886820F4807088608A68206CD20709D1EB
:1018F00040F010002064606C40F001006064002043
:1019000074E000BF40F20172904300F580702064E3
:101910004868400504D5206C012262F30D30206434
:10192000226C0020D2044FF0000244BF626C22F00F
:101930000602626484F83C00A06B40F6B11240F6E7
:101940003523C0F60002C0F60003C0E90F2340F6BD
:101950002122C0F60002C2646FF022020A604A68C7
:1019600042F2080742F080624A608A682B4642F4DD
:1019700080728A604C313246C4F2010700F05CFC90
:10198000D7F8FC222168D2060ED0A7F108029142B6
:101990002CD1396811F0405F28D1396841F080417D
:1019A000396001B0F0BD00BF42F20002C4F2010292
:1019B000914217D042F20022C4F2010291420DD0AE
:1019C00042F20012C4F2010291420FD1D7F8FC2278
:1019D000D20607D007F5FC72914207D1D7F8FC2256
:1019E000D20603D48A6812F0405F01D001B0F0BD86
:1019F0008A6842F080428A6001B0F0BD10B582B0C2
:101A0000044600200190207E02280BD2E06A4FEAB3
:101A10003070042813D294F83C0001281BD1022016
:101A200002B010BD48F28030C0F6000040F2134111
:101A300004F0AAFFE06A4FEA30700428EBD348F2C2
:101A40008030C0F6000040F2144104F09DFF94F88D
:101A50003C000128E3D02168012084F83C000846BE
:101A600050F8082FD2072AD102684DF6836342F05E
:101A70000102026040F26402C2F200021268C4F283
:101A80001B33A2FB03239A0C02EB42020192019A40
:101A9000AAB100BF019A013A0192019A7AB1019A62
:101AA000013A0192019A52B1019A013A0192019AC6
:101AB0002AB1019A013A0192019A002AEAD10368F7
:101AC000226CDB070AD142F01000206404F14400CC
:101AD000012102681143016058E000BF40F2017328
:101AE0009A4302F5807222644A68520504D5226C3A
:101AF000012363F30D322264236C0022DB044FF0D8
:101B0000000344BF636C23F00603636484F83C2045
:101B10006FF022020A604B6842F2043243F08063A5
:101B200043F02003C4F201024B601368DB060DD0C2
:101B3000A2F54173994229D14FF60451CFF6FF71B6
:101B4000515811F0405F21D124E000BF42F2000360
:101B5000C4F20103994215D042F20023C4F20103FA
:101B600099420CD042F20013C4F2010399420DD104
:101B70001368DB0606D0A2F58273994206D111687C
:101B8000C90603D4016811F0405F03D0002002B001
:101B900010BD00BF4FF080419BE7000070B5866D1F
:101BA000044600F077FD94F83510022928D1054647
:101BB0002068216C026822F016020260426922F05D
:101BC0008002426109B9A16C19B1016821F00801D4
:101BD0000160016821F00101016000BF2068006818
:101BE000C00715D000F056FD401B0628F6D3202074
:101BF0006065032084F83500002184F8341070BD3E
:101C0000802060650120002184F8341070BD00BF81
:101C1000E06D3F2101FA00F0B060012084F835004A
:101C20000020002184F8341070BD000090F83510B9
:101C3000022909D1052180F835100068016821F0DA
:101C4000010101600020704780214165012070473B
:101C5000F0B581B004460020009040F26400C2F26A
:101C600000000268D4E9166048F2B513376808210D
:101C7000C1F64E3381403942A2FB03250CD02268C5
:101C800013685B0708D5136823F004031360B16081
:101C9000616D41F00101616501218140394208D047
:101CA00022685269120604D5B160616D41F00201EB
:101CB000616504218140394208D022681268920788
:101CC00004D5B160616D41F004016165102181406E
:101CD000394217D020680268120713D5B160026834
:101CE0000168520308D4C90508D4016821F008012D
:101CF0000160216C21B905E008033FD4216C09B1D2
:101D000020468847E16D202000FA01F23A4241D096
:101D100020680368DB063DD5B26094F83530026870
:101D2000052B1BD122F016020260426922F08002CC
:101D30004261226C0AB9A26C1AB1026822F0080250
:101D400002603F208840B060012084F83500216D9A
:101D50000020002984F8340052D157E00168520372
:101D600010D4C90512D4016821F0100101600120CE
:101D700084F83500002084F8340007E0A16C0029C5
:101D8000BED1BFE7080301D4616C00E0E16B09B18B
:101D900020468847606DC8B3606DC0072ED005200F
:101DA00084F835002068A90A026822F00102026066
:101DB000009A01328A4200921AD80268D20717D0DC
:101DC000009A01328A42009212D80268D2070FD0DC
:101DD000009A01328A4200920AD80268D20707D0DC
:101DE000009A01328A42009202D80268D207DFD1FB
:101DF000012084F83500002084F83400E16C29B11A
:101E0000204601B0BDE8F040084700BF01B0F0BD7A
:101E10002DE9F041044600F03DFCECB10546206898
:101E200046F20F41C4F20201884219DC46F26F010A
:101E3000C4F20201884229DC46F23F01C4F20201E9
:101E4000884243DC46F21001C4F20201884268D0A5
:101E500046F2280160E000BF0120BDE8F08100BF2C
:101E600046F26F41C4F2020188421FDC46F23F4154
:101E7000C4F20201884233DC46F21041C4F202018E
:101E800088424ED046F2284146E000BF46F29F010C
:101E9000C4F2020188422DDC46F27001C4F2020154
:101EA00088423ED046F2880136E000BF46F29F41AC
:101EB000C4F20201884227DC46F27041C4F20201FA
:101EC00088422ED046F2884126E000BF46F240010B
:101ED000C4F20201884224D046F258011CE000BF3F
:101EE00046F24041C4F2020188421AD046F25841FB
:101EF00012E000BF46F2A001C4F20201884210D0F5
:101F000046F2B80108E000BF46F2A041C4F2020167
:101F1000884206D046F2B841C4F20201884240F03D
:101F20005B8160684FEA7061072909D3B0F1606F87
:101F300006D048F26440C0F60000B82104F024FD49
:101F4000A068002818BF402840F0B680E06840F440
:101F50000070B0F5007F40F0BB80206940F48060E5
:101F6000B0F5806F40F0C2806069002818BFB0F5FE
:101F7000006F40F0C380A069002818BFB0F5005F73
:101F800040F0C880E069002818BF202840F0CE80CB
:101F9000206A4FEA3040042806D2606A40F004010B
:101FA00004290DD1A8B92AE048F26440C0F6000027
:101FB000BF2104F0E9FC606A40F004010429F1D07B
:101FC00048F26440C0F60000C02104F0DDFC606A05
:101FD000A8B1A06A042880F0B580E06A4FEAF0500A
:101FE000042880F0BC80206B4FEA7050042806D390
:101FF00048F26440C0F60000C72104F0C5FC02208E
:1020000084F835000020216884F83400086820F046
:102010000100086021680868C0070DD000F03AFB95
:10202000401B0528F6D9032520230320636584F887
:102030003550BDE8F08100BF086848F23F02CFF29A
:102040001002D4E9013500EA020C04F10C0898E80A
:10205000C10143EA0C032B431843D4E9072E304354
:1020600038431043626A40EA0E00042A40EA08033B
:1020700040F08480206BD4E90A2E40EA0E00184319
:1020800008604869BEF1000F20F0030040EA02003A
:1020900040F0040C78D0B8F5005F00F0AB80B8F1E8
:1020A000000F40F0B980022A00F0B980012A00F048
:1020B000AD80002A68D1B2E080283FF447AF48F2F3
:1020C0006440C0F60000B92104F05EFC3EE700BFAA
:1020D00048F26440C0F60000BA2104F055FC2069C3
:1020E00040F48060B0F5806F3FF43EAF48F264404A
:1020F000C0F60000BB2104F047FC35E7B0F5805F77
:102100003FF439AF48F26440C0F60000BC2104F04F
:102110003BFC30E7B0F5804F3FF434AF48F2644009
:10212000C0F60000BD2104F02FFC2BE7B0F5807F46
:102130003FF42EAF48F26440C0F60000BE2104F028
:1021400023FC25E748F26440C0F60000C52104F0F6
:102150001BFCE06A4FEAF0500428FFF444AF48F259
:102160006440C0F60000C62104F00EFC206B4FEA6C
:1021700070500428BFF43CAF41E700BF0B604869D2
:1021800020F0070040EA020C01F0F8004AF6AB220A
:102190001038CAF6AA22A0FB02231A0948F2183303
:1021A000C0F600039A5C40F2FF335F284FF03F0017
:1021B000C1F814C021EA030100FA02F088BF04311B
:1021C000C4E916128860002301250020636584F8A5
:1021D0003550BDE8F08100BF48F26440C0F6000011
:1021E000B72104F0D1FB60684FEA70610729BFF4A2
:1021F0009DAEA5E6032AC7D8012540230120DFE8CC
:1022000002F0030E030500BF10E700BFAEF1C0707F
:10221000B0FA80F0400904E0032A04D3B4D1CEF32D
:1022200000600028B0D0012540230120636584F8B8
:102230003550BDE8F08100002DE9F0411446074615
:10224000D0F85880581E4FF6FF721D4690420E4639
:1022500007D348F26440C0F6000040F2CB1104F00E
:1022600093FB97F83400012833D0012087F834001D
:1022700097F83500012829D1022087F83500002081
:1022800078653868B9683A6CFB6D0768402927F4AF
:10229000802731460760456004BF2146344681608F
:1022A0003F219940C460C8F80810016841F0160148
:1022B00001601AB1016841F008010160016841F054
:1022C000010101600020BDE8F08100BF002087F817
:1022D00034000220BDE8F081B0B5044600F0DAF920
:1022E000054640F20C00C2F200000078611C18BFE5
:1022F000044400BF00F0CEF9401BA042FAD3B0BDA9
:1023000010B5044600F0C6F9B4F5005F0ED0B4F580
:10231000805F09D140F2B002C2F20002114651F8CA
:10232000083FC31A0A2B0DD210BD00BF40F2B00106
:10233000C2F2000151F80C2F821A0A2A38BF10BDD0
:10234000A1F10B02086040F2B0010120C2F20001CD
:102350001070887010BD000043F61441C4F20101F2
:102360000A68024214BF08607047FFF7C9BF000047
:102370002DE9F04F83B0044600F13E4000F1FF70BC
:102380004FEAB0270B2F0D4606D348F22B40C0F67C
:102390000000AC2104F0F8FA28680021B1EB104FDE
:1023A00040F0188180B2002800F014816868B0F510
:1023B000881F80F21B81122800F23281012101FA6C
:1023C00000F00F21C0F20601084200F0298105F15A
:1023D0001000019042F20040C4F202000A2143F6CC
:1023E0000049844208BF0921C4F20109092F38BFFE
:1023F00039464FF0010C4FF0030E4FF0000A4FF03A
:10240000000B0027009107E001370BF1020B102FA2
:102410000AF1040A00F0DA8028680CFA07F810EADA
:10242000080FF1D0686800F003014A1E012A07D99D
:10243000032929D100F00301022941D06DE000BF3A
:10244000E86804280BD348F22B40C0F60000C021F6
:1024500004F09AFAE8684FF0030E4FF0010CA168FF
:102460000EFA0BF2914300FA0BF00843A06061688A
:10247000686821EA0801C0F30012BA4011436160A4
:1024800000F003010329D5D0A86803280BD348F234
:102490002B40C0F60000D12104F076FAA8684FF076
:1024A000030E4FF0010CE1680EFA0BF2914300FAB3
:1024B0000BF00843E060686800F0030102292CD1AA
:1024C00001980068102806D281B24BF6FF7222FAFA
:1024D00001F1C9070CD148F22B40C0F60000DE2103
:1024E00004F052FA01984FF0030E4FF0010C02E095
:1024F0004FA101EB80006FF0030101EA5701214475
:1025000000680A6A0AF01C030F269E40B2439840F6
:1025100010430862686800F0030122680EFA0BF3AA
:102520009A4301FA0BF1114310F4403F21603FF44C
:102530006BAF002043F644010290C4F20201086828
:102540004FF6084640F4804008600868CFF6FF76F2
:1025500000F480400290029827F00300484481591B
:102560000AF00C020F2393409943009B03FA02F2F6
:1025700011438151D9F80800696840EA080243F61E
:102580000C46CB0258BF20EA0802C9F80820C4F262
:10259000010630688B0240EA080258BF20EA0802B0
:1025A0003260D9F804008B0340EA080258BF20EAE1
:1025B0000802C9F80420D9F80000C90340EA08025B
:1025C00058BF20EA0802C9F800201DE703B0BDE8A3
:1025D000F08F00BF48F22B40C0F60000AD2104F0A0
:1025E000D3F96868B0F5881FFFF6E5AEB0F5081FAF
:1025F0000CDAB0F5881F3FF4EAAEB0F5901F3FF457
:10260000E6AEB0F5041F3FF4E2AE09E03FF4DFAE02
:10261000B0F5441F3FF4DBAEB0F5481F3FF4D7AE32
:1026200048F22B40C0F60000AE2104F0ADF9CEE632
:102630000000000001000000020000000300000094
:102640000400000005000000060000000700000074
:1026500008000000090000000A0000000B00000054
:102660000C0000000D000000000000000F00000042
:10267000B0B50C46054639B948F22B40C0F600000B
:102680004FF4BE7104F080F92869204018BF012082
:10269000B0BD000040F2B860C2F2000000687047B0
:1026A00040F20C0040F2B861C2F20000C2F2000138
:1026B00000780A68104408607047000080B543F64F
:1026C0000040C4F20200016841F400710160016839
:1026D00041F480610160016841F480710160032070
:1026E00000F0A4F80F2000F005F800F027F8002013
:1026F00080BD000070B540F20C06C2F2000640F248
:1027000064013278C2F200014FF47A730968B3FBB6
:10271000F2F20446B1FBF2F1084600F063FD0F2C23
:102720004FF0010508D838B94FF0FF30214600229C
:10273000002500F03BF87460284670BD82B0002090
:1027400043F640010190C4F202014A6842F480421B
:102750004A604A6802F480420192019A0090086837
:1027600040F080500860086800F0805000900098A9
:1027700002B07047B0F1FF3F10DDC1B200F01F00A2
:10278000012202FA00F04EF20012CEF2000242EAFA
:10279000D10121F003010860704700BF48F29C405E
:1027A000C0F60000BC2104F0EFB8000070B515467B
:1027B0000E46102A044606D348F29C40C0F600009C
:1027C000A82104F0E1F8102E06D348F29C40C0F690
:1027D0000000A92104F0D8F84EF60C50CEF200000B
:1027E00001684FF0FF33C1F3022181F00702042A90
:1027F00028BF0422033903FA02F238BF002126EA77
:1028000002028A4003FA01F125EA0101114304F0B2
:102810000F02043A104404F16042090102F56442D7
:10282000002C48BF00F10C02117070BD10B50446B9
:102830000338052806D348F29C40C0F600009021DA
:1028400004F0A2F84EF60C50CEF2000001684FF6EC
:10285000FF02114064F30A2141F0806141F0FD71F3
:10286000016010BD70B582B00020019043F64000B9
:10287000C4F202000168402641F080510160006806
:10288000C4F20E2600F080500190019847F2040532
:102890000120C4F200053060FFF7FCFE044600BFD3
:1028A0002868C00306D4FFF7F5FE001BB0F57A7F59
:1028B000F6D90EE001207060FFF7ECFE044600BF81
:1028C0002868800308D4FFF7E5FE001BB0F57A7F87
:1028D000F6D9032002B070BD002002B070BD000028
:1028E0002DE9F041002800F0DB80044600680D4629
:1028F00001380F2807D348F2F330C0F6000040F249
:102900005A2104F041F8102D07D348F2F330C0F6F5
:10291000000040F25B2104F037F843F60808C4F2E7
:102920000208D8F8F80300F00F00A84208D288F88F
:10293000F853D8F8F80300F00F00A84240F0B08038
:10294000206881071FD5410705D5D8F8001041F44C
:10295000E051C8F80010000705D5D8F8000040F491
:102960006040C8F80000A0686FF0070101EB30116B
:10297000082980F0B780D8F8001021F0F001084352
:10298000C8F800002068C00764D1D8F8F80300F048
:102990000F00A84207D988F8F853D8F8F80300F0D8
:1029A0000F00A8427CD1206841071AD5E0686FF07B
:1029B000030101EBB02104290BD34FEAB02141B14F
:1029C00048F2F330C0F6000040F2C32103F0DCFF10
:1029D000E068D8F8001021F4E0510843C8F800007E
:1029E000206800071AD520696FF0030101EBB021C0
:1029F00004290BD34FEAB02141B148F2F330C0F6BD
:102A0000000040F2CA2103F0BFFF2069D8F800108F
:102A100021F4604141EAC000C8F8000000F09AF8D3
:102A2000D8F8001048F20032C1F30311C0F60002DA
:102A3000515C40F2640220FA01F140F21000C2F24F
:102A400000000068C2F200021160FFF753FE002090
:102A5000BDE8F0816068042808D348F2F330C0F67E
:102A6000000040F2852103F08FFF6068811E02297B
:102A700008D258F8081C89015CBF0120BDE8F0812C
:102A800012E000BF012807D158F8081C89035CBF79
:102A90000120BDE8F08107E058F8081C890703D43D
:102AA0000120BDE8F08100BFD8F8001021F003013B
:102AB0000843C8F80000FFF7EDFD064641F28837ED
:102AC000D8F80000616800F00C00B0EB810F3FF413
:102AD0005CAFFFF7DFFD801BB842F1D90320BDE8F2
:102AE000F08100BF4FEA301100293FF444AF48F2B3
:102AF000F330C0F6000040F27E2103F045FFA068ED
:102B000039E7000040F2640043F60801C2F2000019
:102B1000C4F202010068096848F21032C1F3822150
:102B2000C0F60002515CC8407047000040F26400EB
:102B300043F60801C2F20000C4F20201006809680D
:102B400048F21032C1F34231C0F60002515CC84075
:102B50007047000010B543F60404C4F20204606834
:102B600000F00C0142F200400829C0F2F40007D046
:102B7000042918BF10BD41F20020C0F27A0010BD38
:102B8000216801F03F02216823684902C3F38811DC
:102B900006D4A1FB00010023FDF724FB07E000BFE2
:102BA00041F20020C0F27A004843B0FBF2F0216805
:102BB0000222C1F3014102EB4101B0FBF1F010BD73
:102BC000F0B585B01446064602280D4607D348F2F4
:102BD000F330C0F6000040F20B3103F0D5FE6FF089
:102BE000030000EB346004280AD34FEA346038B1A4
:102BF00048F2F330C0F600004FF4437103F0C4FE16
:102C000043F63007002E40F20006C4F20207C4F279
:102C100002062DD0A80007D048F2F330C0F600001D
:102C20004FF44A7103F0B0FE00200090396841F083
:102C300004013960396801F00401009100994FF4F2
:102C400000710091022101910321CDE9020104905C
:102C500006F500606946FFF78BFB57F8280C20F05B
:102C6000784040EAC400284347F8280C05B0F0BD7E
:102C70004FEA7550042807D348F2F330C0F600003D
:102C80004FF4447103F080FE00200090396841F059
:102C900001013960396801F00101009100994FF498
:102CA00080710091022101910321CDE9020104907C
:102CB00069463046FFF75CFB57F8280C20F0EC60C3
:102CC0002843204347F8280C05B0F0BD2DE9F0411A
:102CD00082B0002800F0BE8004460068102807D3A8
:102CE00048F2F330C0F60000E62103F04DFE206804
:102CF00043F60006C007C4F2020612D0606800283E
:102D000018BFB0F5803F40F02181B06800F00C00A2
:102D1000042815D13068800303D56068002800F0CE
:102D200099802078800753D5E068022822D2206954
:102D300020282AD2B06810F00C0F32D13BE000BF3F
:102D4000B06800F00C00082802D170684002E1D49D
:102D50006068B0F5803F07D0B0F5A02F40F06A81E1
:102D6000306840F480203060306840F4803030605B
:102D70006AE100BF48F2F330C0F6000040F21D11D6
:102D800003F002FE20692028D4D348F2F330C0F6C5
:102D900000004FF48F7103F0F7FDB06810F00C0FD6
:102DA00009D0B06800F00C00082840F0AB807068D3
:102DB000400200F1A7803068800702D5E068012852
:102DC00048D13068216920F0F80040EAC100306045
:102DD0002078000742D42078400761D4A0690328F6
:102DE00008D348F2F330C0F6000040F2CD1103F0F2
:102DF000CBFDA06950B3B16801F00C01082940F087
:102E0000C180012826D07068E16900F480028A42FE
:102E100020D1216A00F03F028A421BD147F6C071DF
:102E2000626A0140B1EB821F14D1A16A4FF6FF73B1
:102E3000C903994300F44032A1F580318A4209D197
:102E4000E16A00F07060B0EB016F03D1002002B0C6
:102E5000BDE8F081012002B0BDE8F0816069022880
:102E600008D348F2F330C0F600004FF4AF7103F01E
:102E70008BFD6069002840F26000C4F2472071D0E9
:102E80000121C0F8201EFFF705FC0546706F800782
:102E9000A1D4FFF7FFFB401B0228F7D9E1E000BFF8
:102EA000A068052800F29E80012101FA00F010F0D0
:102EB000230F00F09780306C10F080580AD100206A
:102EC0000190306C40F080503064306C00F08050E5
:102ED0000190019847F20007C4F200073868C00566
:102EE00026D4386840F480703860FFF7D3FB05467D
:102EF0003868C0051CD4FFF7CDFB401B0228F7D96A
:102F0000AFE000BFE068002856D06020C4F2472040
:102F1000012140F8601CFFF7BDFB054630688007C3
:102F20003FF54FAFFFF7B6FB401B0228F6D998E0FC
:102F3000A068012805D0052862D1306F40F0040058
:102F40003067306F40F00100306763E0B0F5A02FCC
:102F50003FF4DBAE48F2F330C0F60000EB2103F0A3
:102F600013FDD2E60021C0F8201EFFF793FB0546B3
:102F7000706F80077FF52FAFFFF78CFB401B022897
:102F8000F6D96EE0022871D1E06940F48000B0F516
:102F9000800F40F0AB80206A02383E2880F0B3807A
:102FA000606A3238B0F5BF7F00F2BB80A06A0828A3
:102FB00040F2C28008E100BF6020C4F24720002137
:102FC00040F8601CFFF766FB054600BF30688007CD
:102FD0007FF5FEAEFFF75EFB401B02284FF00300BB
:102FE000F4D934E748F2F330C0F600004FF4C5716D
:102FF00003F0CAFC306C10F080583FF460AF69E712
:10300000316F002821F001013167316F21F0040197
:1030100031673FD0FFF73EFB054641F2883700BFDE
:10302000306F800748D4FFF735FB401BB842F7D913
:1030300017E000BF3168002821F480313160316829
:1030400021F48021316041D0FFF724FB054600BF09
:10305000306880033FF565AEFFF71CFB401B64281A
:10306000F6D9032002B0BDE8F08100BF6020C4F2B1
:10307000472000210160FFF70DFB04463068800106
:103080007FF5E4AEFFF706FB001B02284FF00300BC
:10309000F4D9DCE6FFF7FEFA054641F2883700BFB7
:1030A000306F800708D5FFF7F5FA401BB8424FF0A4
:1030B0000300F5D9CBE600BFB8F1000F7FF48EAE68
:1030C000306C20F08050306488E600BFFFF7E2FAF1
:1030D000054600BF306880037FF523AEFFF7DAFABC
:1030E000401B64284FF00300F4D9B0E648F2F330F7
:1030F000C0F600004FF4EB7103F046FC206A023882
:103100003E28FFF44DAF48F2F330C0F6000040F225
:10311000D71103F039FC606A3238B0F5BF7F7FF613
:1031200045AF48F2F330C0F600004FF4EC7103F005
:103130002BFCA06A082847D8012101FA00F010F4FE
:10314000AA7F41D0E06A02380E2807D348F2F33054
:10315000C0F600004FF4ED7103F016FC6027C4F2D6
:10316000472700203860FFF795FA05463068800150
:1031700008D5FFF78FFA401B02284FF00300F5D95E
:1031800065E600BF04F11C052FCD084340EA82101C
:10319000D9034FF6FF729143A1F5803140EA0560F3
:1031A0000843706001203860FFF774FA044600BFDE
:1031B000306880013FF54AAEFFF76CFA001B022829
:1031C0004FF00300F4D942E648F2F330C0F60000B5
:1031D00040F2D91103F0D8FBE06A02380E28B5D2CC
:1031E000BCE70000411E0020B0EB116F1CBF0120A6
:1031F00070474EF21002CEF2000251604EF623519B
:10320000CEF20001F0230B7007219060116070472F
:103210007047000070470000B0B50446006840F6F3
:10322000FF72C4F2000290420D460FDC40F2FF71C3
:10323000C4F2000188421DDCB0F1804F33D040F26F
:103240000041C4F2000188422DD09DE04FF6FF718D
:10325000C4F2000188421BDC41F20001C4F200010B
:10326000884220D041F20041C4F2000188421AD0C5
:103270008AE000BF40F60001C4F20001884212D08B
:1032800040F60041C4F2000188420CD07CE000BF4F
:103290000021C4F20101884205D040F20041C4F28D
:1032A0000101884270D128684FEA3010082807D3FE
:1032B00048F20F50C0F6000040F2AA7103F064FB20
:1032C000686840F08000802807D048F20F50C0F6B0
:1032D000000040F2AB7103F057FB94F83C0001286A
:1032E0004FF0020008BFB0BD84F83D00206842687E
:1032F00081682B6822F070021A4341F2FF73C4F216
:103300000003984242600DDC40F2FF72C4F20002FA
:10331000904215DCB0F1804F2AD040F20042C4F256
:10332000000223E040F2FF32C4F20102904213DCBB
:1033300041F60002C4F20002904219D0002213E0CC
:1033400040F60002C4F20002904211D040F6004262
:10335000C4F200020AE000BF44F20002C4F201021B
:10336000904205D040F20042C4F20102904204D1E2
:103370006A6821F0800111438160012084F83D00DA
:10338000002084F83C00B0BD48F20F50C0F60000A9
:1033900040F2A97103F0F8FA28684FEA30100828C3
:1033A000BFF486AF8CE70000002804BF01207047FF
:1033B000B0B50446006841F6FF31C4F2000188420E
:1033C00016DC40F6FF31C4F20001884226DD41F2EE
:1033D000FF31C4F2000188423CDC40F60041C4F2F7
:1033E000000188424ED041F20001C4F2000147E0E2
:1033F00040F2FF31C4F2010188421DDD44F2FF3189
:10340000C4F20101884231DC40F20041C4F2010102
:10341000884237D044F2000130E000BFB0F1804F65
:1034200030D040F20041C4F2000188422AD040F678
:103430000001C4F2000123E041F60041C4F20001A2
:1034400088421FD042F20001C4F20001884219D024
:10345000002113E041F20041C4F20001884211D082
:1034600041F60001C4F200010AE000BF44F200414D
:10347000C4F20101884205D044F60001C4F2010102
:10348000884273D1A0684FEA301006287CD8012109
:1034900001FA00F010F0570F76D02069002818BF0D
:1034A000B0F5807F40D12068B0F1804F05D040F664
:1034B0000041C4F20001884242D1E06838B948F2C4
:1034C000D740C0F600004FF48B7103F05DFAA0699D
:1034D000251D40F0800080283AD194F83D0028B99D
:1034E000002084F83C00204600F058F8022084F8C0
:1034F0003D002068294602F0FBFB012084F84600CD
:1035000084F83E0084F83F0084F8400084F84100CD
:1035100084F8420084F8430084F8440084F84500AD
:1035200084F83D000020B0BDB0F5007FBBD048F26C
:10353000D740C0F6000040F2151103F025FAB2E7BB
:10354000E0684FF6FF7101388842B8D2BFE700BF8C
:1035500048F2D740C0F6000040F2171103F014FA09
:1035600094F83D000028C1D1BAE700BF48F2D74027
:10357000C0F6000040F2131103F006FAA0684FEA0B
:10358000301006287FF683AF48F2D740C0F600001F
:103590004FF48A7103F0F8F97FE7000080B582B03C
:1035A000006840F20041C4F2010188421CBF02B031
:1035B00080BD0020019043F64400C4F2020001687F
:1035C000002241F0020101600068012100F00200C8
:1035D000019001982C20FFF7E9F82C20FFF7CAF89A
:1035E0002D2001210022FFF7E1F82D2002B0BDE8D7
:1035F0008040FFF7BFB8000010B50446006841F6F0
:10360000FF31C4F20001884216DC40F6FF31C4F2FB
:103610000001884226DD41F2FF31C4F200018842F8
:103620003CDC40F60041C4F2000188424ED041F239
:103630000001C4F2000147E040F2FF31C4F2010191
:1036400088421DDD44F2FF31C4F20101884231DCC1
:1036500040F20041C4F20101884237D044F2000137
:1036600030E000BFB0F1804F30D040F20041C4F2F2
:10367000000188422AD040F60001C4F2000123E094
:1036800041F60041C4F2000188421FD042F200011D
:10369000C4F20001884219D0002113E041F2004138
:1036A000C4F20001884211D041F60001C4F20001C9
:1036B0000AE000BF44F20041C4F20101884205D093
:1036C00044F60001C4F20101884255D194F83D004E
:1036D00001281CBF012010BD022084F83D00206895
:1036E00041F2FF72C168C4F20002904241F0010150
:1036F000C1600DDC40F2FF71C4F20001884215DCAC
:10370000B0F1804F2AD040F20041C4F2000123E022
:1037100040F2FF31C4F20101884213DC41F600019E
:10372000C4F20001884219D0002113E040F60001E4
:10373000C4F20001884211D040F60041C4F20001F9
:103740000AE000BF44F20001C4F20101884205D042
:1037500040F20041C4F20101884206D1816801F0C3
:103760000701062904BF002010BD016841F00101D6
:103770000160002010BD00BF48F2D740C0F6000035
:103780004FF4E87103F000F9A0E70000B0B504467B
:1037900090F83C0001284FF0020008BFB0BD0D4674
:1037A000012184F83C1084F83D0028684F2809DC8A
:1037B0001F2813DD202821D030281FD040281DD0FD
:1037C00014E000BF6F280DDD702817D0B0F5805FC2
:1037D00014D0B0F5005F11D008E000BF70B1102820
:1037E0000CD003E0502809D0602807D048F2D74019
:1037F000C0F6000041F2C34103F0C6F821684FF65D
:1038000077728868904388602A6801204F2A1FDCFD
:103810001F2A4DDD202A4FD0302A4DD0402A40F0BB
:103820007A8341F2FF70C4F20000814200F3EC8021
:1038300040F2FF70C4F20000814200F39F81B1F1B9
:10384000804F00F0D88140F20040C4F20000CFE188
:103850006F2A47DD702A6FD0B2F5005F00F08480D8
:10386000B2F5805F40F0578341F6FF30C4F20000AC
:1038700081424FF0000000F3D78040F6FF32C4F2DF
:103880000002914240F3428241F2FF32C4F2000250
:10389000914200F35B8240F60042C4F20002914282
:1038A00000F0398341F20002C4F2000265E200BF79
:1038B00012B1102A40F02F8341F2FF70C4F20000D1
:1038C00081422BDC40F2FF70C4F20000814263DCD5
:1038D000B1F1804F00F0918040F20040C4F200004E
:1038E00088E000BF502A63D0602A40F0148341F280
:1038F000FF70C4F20000814200F3AE8040F2FF701E
:10390000C4F20000814200F34581B1F1804F00F024
:103910008C8140F20040C4F2000083E140F2FF30AD
:10392000C4F2010081425BDC41F60000C4F20000F9
:10393000814262D000205BE041F2FF70C4F20000DF
:10394000814200F3998040F2FF70C4F2000081428E
:1039500000F32C81B1F1804F00F0818140F20040F2
:10396000C4F2000078E100BF40F6FF30C4F200006E
:10397000814200F39180B1F1804F00F0A68040F2C7
:103980000040C4F20000814200F09F8040F6000039
:10399000C4F200008FE000BF40F60000C4F2000057
:1039A00081422AD040F60040C4F2000022E000BF6D
:1039B00041F2FF70C4F20000814200F3C38040F284
:1039C000FF70C4F20000814200F3FC80B1F1804F2F
:1039D00000F08F8140F20040C4F2000086E100BF99
:1039E00040F20040C4F20100814206D044F20000DF
:1039F000C4F20100814240F0B580886820F0700078
:103A0000104340F0070084E240F2FF30C4F20100AE
:103A1000814200F3E38041F60000C4F200008142DD
:103A200000F0E9800020E1E040F2FF32C4F2010240
:103A3000914240F37B8144F2FF32C4F20102914291
:103A400000F3908140F20042C4F20102914200F082
:103A5000628244F200028EE140F2FF30C4F20100C3
:103A6000814200F3D58041F60000C4F2000081429B
:103A700000F0DB800020D3E040F2FF30C4F2010010
:103A8000814200F3DF8041F60000C4F20000814271
:103A900000F0E5800020DDE040F60040C4F20000C8
:103AA000814212D00020C4F2010081420DD040F2C8
:103AB0000040C4F20100814207D048F2D740C0F66E
:103AC000000041F2EE4102F05FFFA8684FEA30309B
:103AD000042807D348F2D740C0F6000041F2F14174
:103AE00002F052FF68680A2805D80121814040F29F
:103AF000054211420AD1B0F5004F07D048F2D74035
:103B0000C0F6000041F2F24102F03EFFE8681028E2
:103B100008D348F2D740C0F6000041F2F34102F06A
:103B200033FFE8682168D5E901238D681A4325F43D
:103B30007F4542EA002028438860886840F480403E
:103B4000E7E100BF40F2FF30C4F20100814200F320
:103B5000C38041F60000C4F20000814200F0C98039
:103B60000020C1E048F2D740C0F6000041F23551D4
:103B700002F00AFF21682A683FE700BF40F6000014
:103B8000C4F20000814236D040F60040C4F200008A
:103B90002EE000BF40F60000C4F20000814244D095
:103BA00040F60040C4F200003CE000BF40F60000D8
:103BB000C4F20000814252D040F60040C4F200003E
:103BC0004AE000BF40F60000C4F20000814200F06D
:103BD000908040F60040C4F2000087E040F20040D0
:103BE000C4F20100814206D044F20000C4F2010098
:103BF000814240F0CF8068680A2800F2D780012116
:103C0000814040F20542114240F0DB80CEE000BF2F
:103C100040F20040C4F20100814206D044F20000AC
:103C2000C4F20100814240F0EF8068680A2800F287
:103C3000F7800121814040F20542114240F0FB80B3
:103C4000EEE000BF40F20040C4F20100814206D025
:103C500044F20000C4F20100814240F01181A868E2
:103C60004FEA3030042807D348F2D740C0F60000AE
:103C700041F2D94102F088FE68680A2805D801217E
:103C8000814040F2054211420AD1B0F5004F07D001
:103C900048F2D740C0F6000041F2DA4102F074FE6B
:103CA000E868102808D348F2D740C0F6000041F277
:103CB000DB4102F069FEE8682168D5E901238D68DF
:103CC0001A4325F47F4542EA00202843886088682B
:103CD00040F077001DE100BF40F20040C4F2010057
:103CE000814206D044F20000C4F20100814240F05B
:103CF000D78068680A2800F2DF800121814040F205
:103D00000542114240F0E380D6E000BFB1F1804FA0
:103D100000F0018140F20042C4F20002914200F042
:103D2000FA8040F60002C4F2000226E041F60042AA
:103D3000C4F20002914200F0EE8042F20002C4F2AE
:103D40000002914200F0E780002214E041F20042BC
:103D5000C4F20002914200F0DE8041F60002C4F29B
:103D600000020AE044F20042C4F20102914200F073
:103D7000D28044F60002C4F20102914200F0CB80EE
:103D800048F2D740C0F6000041F2CF4102F0FCFDFE
:103D9000C0E000BF48F2D740C0F6000041F2225117
:103DA00002F0F2FD68680A287FF629AFB0F5004FEF
:103DB00007D048F2D740C0F6000041F2255102F08A
:103DC000E3FDE868102808D348F2D740C0F60000A9
:103DD00041F2265102F0D8FDE86821686A680B6A52
:103DE0000D6A23F00A0325F001050D628D691A435F
:103DF00025F0F00545EA001088610A62886840F005
:103E0000470020F0300084E048F2D740C0F60000C0
:103E100041F2125102F0B8FD68680A287FF609AF36
:103E2000B0F5004F07D048F2D740C0F6000041F28D
:103E3000155102F0A9FDE868102808D348F2D740D0
:103E4000C0F6000041F2165102F09EFDE8682168BC
:103E50006A680B6A0D6A23F0A00325F010050D6255
:103E60008D6943EA021225F4704545EA0030886105
:103E70000A62886840F0670020F0100049E000BF47
:103E800048F2D740C0F6000041F2D64102F07CFD76
:103E9000A8684FEA30300428BFF4E6AEECE600BF75
:103EA00048F2D740C0F6000041F2025102F06CFD2A
:103EB00068680A287FF621AFB0F5004F07D048F2B6
:103EC000D740C0F6000041F2055102F05DFDE86800
:103ED000102808D348F2D740C0F6000041F206513E
:103EE00002F052FDE86821686A680B6A0D6A23F0E7
:103EF0000A0325F001050D628D691A4325F0F005CE
:103F000045EA001088610A62886840F0570020F096
:103F1000200088600020012184F83D10002184F8F1
:103F20003C10B0BD7047000070B504460068C5681D
:103F30000669B10716D515F0020113D06FF0020122
:103F40000161012121778069800703D02046FFF7B6
:103F5000E9FF05E0204600F08FF8204600F088FBDE
:103F600000202077700719D515F0040016D02068BE
:103F70006FF00401016102212177806910F4407F14
:103F800004D02046FFF7CEFF06E000BF204600F039
:103F900073F8204600F06CFB00202077300717D51F
:103FA00015F0080014D020686FF0080101610421A9
:103FB0002177C069800703D02046FFF7B3FF05E0F3
:103FC000204600F059F8204600F052FB00202077F0
:103FD000F00619D515F0100016D020686FF010010A
:103FE000016108212177C06910F4407F04D0204688
:103FF000FFF798FF06E000BF204600F03DF820469E
:1040000000F036FB00202077F00718BF15F0010004
:1040100002D1300609D412E020686FF0010101617D
:10402000204600F017FC300609D515F0800006D0B8
:1040300020686FF0800101612046FFF7E9F8700603
:1040400009D515F0400006D020686FF040010161ED
:10405000204600F00FFCB00658BF70BD15F02000E0
:1040600008D021686FF0200220460A61BDE8704048
:10407000FFF7D0B870BD0000704700002DE9F04F89
:1040800081B016460D460C2A044605D80120B040E2
:1040900041F21111084209D13C2E07D048F2D74015
:1040A000C0F6000041F2820102F06EFC286840F088
:1040B0001000702812D1A86840F0020002281AD11E
:1040C000286940F00400042822D194F83C0001281B
:1040D0002AD1022001B0BDE8F08F00BF48F2D740DE
:1040E000C0F6000041F2830102F04EFCA86840F0E7
:1040F00002000228E4D048F2D740C0F6000041F2A6
:10410000840102F041FC286940F004000428DCD05E
:1041100048F2D740C0F6000041F2850102F034FCBD
:1041200094F83C000128D4D04FEAB60101200329BD
:1041300084F83C0000F26B81DFE801F00220384E89
:10414000206841F6FF71C4F20001884260DC40F64D
:10415000FF31C4F20001884200F3FA80B0F1804FD1
:1041600000F0268140F20041C4F20001884200F0D4
:104170001F8140F60001C4F2000117E1206841F2FE
:10418000FF71C4F2000188425ADC40F2FF71C4F2B0
:104190000001884200F3EE80B0F1804F00F02481EE
:1041A00040F20041C4F200011CE100BF206840F66B
:1041B000FF31C4F20001884252DCB0F1804F69D077
:1041C00040F20041C4F20001884263D040F6000191
:1041D000C4F2000153E000BF266840F6FF30C4F28D
:1041E000000040F200418642C4F201015ADCB6F1FF
:1041F000804F6FD040F20040C4F20000864269D088
:1042000040F60000C4F20000864263D057E000BFD1
:1042100043F6FF71C4F20101884200F3B78042F215
:104220000001C4F20001884200F0C2800021C4F203
:104230000101884200F0BC8040F20041B4E000BFC0
:1042400040F2FF31C4F20101884200F3C18041F61F
:104250000001C4F20001884200F0C6800021BFE0E6
:1042600040F60041C4F20001884213D00021C4F29C
:10427000010188420ED040F20041C4F2010188429F
:1042800008D048F2D740C0F6000041F2B10102F078
:104290007BFB2068294601F025FF206850F81C1F91
:1042A0008CE000BF40F60040C4F20000864211D00E
:1042B0000020C4F2010086420CD08E420AD048F29F
:1042C000D740C0F600000E4641F2C20102F05CFB8E
:1042D00031462668D6F82090306A20F4805030624B
:1042E0007768D6F81CA0D5F800B0D5F8088046F459
:1042F0008060884212D1686940F48071B1F5807F96
:1043000008D048F2D740C0F6000041F6B13102F0C3
:104310003BFB686927F4804141EA80172AF4E641B3
:1043200041EA0B217760F16129F40050696840EAA5
:1043300008302A6931643062206850F81C1F41F44B
:1043400000610160016821F48061016011025AE09E
:1043500040F60041C4F20001884229D041F6000134
:10436000C4F20001884223D041F60041C4F20001AA
:104370001CE000BF40F60001C4F20001884233D0C7
:1043800040F60041C4F200012CE000BF44F20001FD
:10439000C4F2010188420BD044F20041C4F2010191
:1043A000884205D044F60001C4F2010188423FD1A1
:1043B000294601F0C1FD206850F8181F41F008019E
:1043C0000160016821F00401016029691BE000BF60
:1043D00040F20041C4F20101884205D044F20001DC
:1043E000C4F20101884219D1294601F00FFE20686C
:1043F00050F8181F41F400610160016821F48061E8
:10440000016029690902026811430160002000214E
:1044100084F83C1001B0BDE8F08F00BF48F2D740EF
:10442000C0F600004FF4855102F0AEFA2068DBE7D9
:1044300048F2D740C0F6000041F28F0102F0A4FA22
:104440002068B5E7002804BF01207047B0B50446D6
:10445000006841F6FF31C4F20001884216DC40F6E4
:10446000FF31C4F20001884226DD41F2FF31C4F27F
:10447000000188423CDC40F60041C4F20001884261
:104480004ED041F20001C4F2000147E040F2FF319A
:10449000C4F2010188421DDD44F2FF31C4F2010182
:1044A000884231DC40F20041C4F20101884237D039
:1044B00044F2000130E000BFB0F1804F30D040F254
:1044C0000041C4F2000188422AD040F60001C4F243
:1044D000000123E041F60041C4F2000188421FD0F0
:1044E00042F20001C4F20001884219D0002113E019
:1044F00041F20041C4F20001884211D041F60001AE
:10450000C4F200010AE000BF44F20041C4F201011C
:10451000884205D044F60001C4F20101884273D1FB
:10452000A0684FEA301006287CD8012101FA00F07B
:1045300010F0570F76D02069002818BFB0F5807FA3
:1045400040D12068B0F1804F05D040F60041C4F260
:104550000001884242D1E06838B948F2D740C0F63D
:10456000000040F22F5102F00FFAA069251D40F023
:10457000800080283AD194F83D0028B9002084F8C2
:104580003C00204600F058F8022084F83D002068E6
:10459000294601F0ADFB012084F8460084F83E0076
:1045A00084F83F0084F8400084F8410084F8420019
:1045B00084F8430084F8440084F8450084F83D0002
:1045C0000020B0BDB0F5007FBBD048F2D740C0F6A8
:1045D000000040F22E5102F0D7F9B2E7E0684FF642
:1045E000FF7101388842B8D2BFE700BF48F2D74018
:1045F000C0F600004FF4A66102F0C6F994F83D0041
:104600000028C1D1BAE700BF48F2D740C0F6000089
:1046100040F22C5102F0B8F9A0684FEA3010062899
:104620007FF683AF48F2D740C0F6000040F22D512C
:1046300002F0AAF97FE7000081B0006840F2004173
:10464000C4F20001884201D001B070470020009000
:1046500043F64000C4F20200016841F0020101602B
:10466000006800F002000090009801B07047000060
:1046700070470000B0B50446006840F6FF32C4F24F
:10468000000290420D460FDCB0F1804F1DD040F289
:104690000041C4F20001884217D040F60001C4F284
:1046A0000001884211D021E040F60041C4F200012F
:1046B00088420AD040F20041C4F20101884204D08D
:1046C0000021C4F20101884210D14FEAB50104294A
:1046D00018D2002D58D0082D04D0042D43D004F159
:1046E000410042E004F140003FE000BF6FF00401F0
:1046F0000D4207D141F60001C4F2000101F59431E9
:104700008842E6D041F6000CC4F2000CA0EB0C018C
:104710005DB9A1F59633A1F59832B3FA83F3B2FAF5
:1047200082F25B0952091A432ED1604518D05DB957
:10473000A1F58060A1F50061B0FA80F0B1FA81F1D5
:104740004009490908431FD148F2D740C0F600008C
:1047500040F2B35102F018F9002DBCD114E000BFB3
:1047600095B1042DE3D104F13F00007801281CBF6E
:104770000120B0BD0220082D10D0042D14BF84F8F4
:10478000410084F83F000BE094F83E0001281CBF74
:104790000120B0BD022084F83E0001E084F8400012
:1047A00020682946012201F045FB206841F2FF7193
:1047B000C4F2000188420BDC40F2FF71C4F2000138
:1047C000884213DCB0F1804F36D040F2004115E052
:1047D00040F2FF31C4F20101884215DC41F60001CC
:1047E000C4F20001884227D0002115E040F6000104
:1047F000C4F2000188421FD040F60041C4F200011B
:10480000884219D01FE000BF44F20001C4F2010148
:10481000884211D040F20041C4F20101884212D115
:10482000416C40F2004340F48062C4F2010341F461
:1048300000419A42416406D1816801F007010629CE
:1048400004BF0020B0BD016841F0010101600020FB
:10485000B0BD000080B540F27C20C2F20000FDF740
:10486000CDF840F2C420C2F20000BDE88040FDF760
:10487000C5B8000070470000704700007047000096
:10488000B0B582B0044600680168C368426901F0AF
:104890002F05202D03F0200506D12DB1204602B0B2
:1048A000BDE8B04001F02CBF5FEA017C1EBF02F002
:1048B000010E03F4907212EB0E0253D1226B012A07
:1048C00005D111F0100218BF13F0100236D10A06FC
:1048D00022D513F080021FD094F8411021293FD136
:1048E000A168B1F5805F03D12169002900F08282BF
:1048F000216A4A1C226209784160E18C01390A046C
:10490000E1842DD1C16821F08001C160C16841F00E
:104910004001C16002B0B0BD490621D513F040018D
:104920001ED0C16821F04001C1602021204684F8DA
:10493000411002B0BDE8B04000F094BD00210191EB
:10494000016801914168019101994069400613D4C1
:10495000A08DE18DE28D002A18BF884240F0CC8105
:1049600002B0B0BDCA0718BF13F4807240F0BE8019
:104970004A0700F1C180C6E0E06B01684A68A38D78
:1049800091B2002900F0A881994280F0A581E285CA
:10499000C069B0F5807F00F09D80206850E8030F6B
:1049A000216820F4807041E80302DAB1206850E801
:1049B000030F216820F4807041E8030292B120685F
:1049C00050E8030F216820F4807041E803024AB1E7
:1049D000206850E8030F216820F4807041E803024A
:1049E000002ADAD1206850E8050F216820F0010084
:1049F00041E80502BAB3206850E8050F216820F0AD
:104A0000010041E8050272B3206850E8050F2168F3
:104A100020F0010041E805022AB3206850E8050FA4
:104A2000216820F0010041E80502002ADAD11AE0ED
:104A3000206850E8050F216820F0400041E8050299
:104A4000DAB1206850E8050F216820F0400041E805
:104A5000050292B1206850E8050F216820F040005F
:104A600041E805024AB1206850E8050F216820F0AE
:104A7000400041E80502002ADAD1202084F84200F3
:104A800000202063206850E8030F216820F0100008
:104A900041E80302DAB1206850E8030F216820F0F2
:104AA000100041E8030292B1206850E8030F21682A
:104AB00020F0100041E803024AB1206850E8030FDB
:104AC000216820F0100041E80302002ADAD1E06BEF
:104AD000FDF764F802206063A08DE18D401A81B279
:104AE000204602B0BDE8B040FFF7C6BE626C42F09F
:104AF000010262644A0706D5BEF1000F03D0626C62
:104B000042F0020262648A0706D5BEF1000F03D0AC
:104B1000626C42F004026264BCF1000F09D545EA00
:104B20000E02B2FA82F2520903D1626C42F008021C
:104B30006264626C002A3FF413AF11F0200118BFC9
:104B4000002D03D0204601F0DBFD20684069616C38
:104B500000F0400001F00801401800F0B58000BFEF
:104B6000206850E8030F216820F4907041E80302A8
:104B7000BAB3206850E8030F216820F4907041E830
:104B8000030272B3206850E8030F216820F490708C
:104B900041E803022AB3206850E8030F216820F49B
:104BA000907041E80302002ADAD11AE0206850E848
:104BB000050F216820F0010041E80502DAB1206804
:104BC00050E8050F216820F0010041E8050292B18C
:104BD000206850E8050F216820F0010041E8050237
:104BE0004AB1206850E8050F216820F0010041E833
:104BF0000502002ADAD1206B012824D1206850E870
:104C0000030F216820F0100041E80302DAB12068A8
:104C100050E8030F216820F0100041E8030292B130
:104C2000206850E8030F216820F0100041E80302DB
:104C30004AB1206850E8030F216820F0100041E8D5
:104C40000302002ADAD1202084F8420000202063E9
:104C500020684069400649D5206850E8050F216862
:104C600020F0400041E80502DAB1206850E8050F65
:104C7000216820F0400041E8050292B1206850E828
:104C8000050F216820F0400041E805024AB1206884
:104C900050E8050F216820F0400041E80502002A95
:104CA000DAD1E06B10B346F20141C0F600010165B4
:104CB000FCF7BCFF00283FF453AEE06B016D02B07F
:104CC000BDE8B040084700BF2046FFF7D7FD0020F1
:104CD000606402B0B0BD00BF8B427FF441AEC069DA
:104CE000B0F5807F7FF43CAE02227CE0204602B02B
:104CF000BDE8B040FFF7C2BD401A216851E8031F6C
:104D0000226821F4907142E80313DBB1216851E875
:104D1000031F226821F4907142E8031393B12168C4
:104D200051E8031F226821F4907142E803134BB14C
:104D3000216851E8031F226821F4907142E80313AF
:104D4000002BDAD1216851E8051F226821F001010A
:104D500042E80513DBB1216851E8051F226821F004
:104D6000010142E8051393B1216851E8051F22684B
:104D700021F0010142E805134BB1216851E8051FFC
:104D8000226821F0010142E80513002BDAD120212D
:104D900084F8421000212163216851E8031F226832
:104DA00021F0100142E80313DBB1216851E8031F31
:104DB000226821F0100142E8031393B1216851E801
:104DC000031F226821F0100142E803134BB1216850
:104DD00051E8031F226821F0100142E80313002B61
:104DE000DAD1022281B22046626302B0BDE8B0404F
:104DF000FFF742BD216A31F8022B6FF35F22426058
:104E000021627AE5002804BF0120704710B581694E
:104E10000446006891B140F6FF72C4F2010290426C
:104E200026DC44F20042C4F20002904235D044F63F
:104E30000002C4F2000290422FD025E047F2FF7139
:104E4000C4F2000188424FF4BC7133DC44F6FF32F7
:104E5000C4F2000290423FDC44F20042C4F200027D
:104E6000904251D044F60002C4F200024AE000BF72
:104E700041F20002C4F2010290420ED041F200421F
:104E8000C4F20102904208D048F24A50C0F6000035
:104E900040F2731101F078FDA1694FEA3120042836
:104EA00032D34FF4BA7148F24A50C0F6000001F014
:104EB0006BFD29E040F6FF72C4F20102904217DC5C
:104EC00047F60002C4F2000290421DD047F60042AD
:104ED000C4F2000216E000BF44F60042C4F2000231
:104EE000904211D045F20002C4F200020AE000BF75
:104EF00041F20002C4F20102904205D041F20042A8
:104F0000C4F201029042CED1A06840F48050B0F5C6
:104F1000805F2FD1E06940F40040B0F5004F37D1F9
:104F200094F8410028B9002084F84000204600F0A1
:104F30003DF8242084F841002068C16821F4005124
:104F4000C160204601F05CFC2068016921F49041B9
:104F50000161416921F02A014161C16841F40051B8
:104F6000C16000202021606484F8411084F8421060
:104F7000606310BD48F24A50C0F600004FF4BD71A6
:104F800001F002FDE06940F40040B0F5004FC7D0E9
:104F900048F24A50C0F6000040F27B1101F0F4FCE8
:104FA00094F841000028C4D1BDE7000070B586B078
:104FB0000446006844F60001C4F20001002688425D
:104FC000CDE90466CDE90266019631D041F20001D7
:104FD000C4F2010188427ED1002043F630010090E6
:104FE000C4F202014A6942F010024A614A6902F0C1
:104FF00010020092009A00900A6842F001020A60D2
:10500000096801F00101009100994FF4C06101911C
:105010000221CDE902100320049007200590002012
:10502000C4F2020001A9FDF7A3F925244BE000BF5B
:1050300043F630000096C4F20200016941F4802179
:105040000161016901F480210091009900960168D5
:1050500041F008010160006801A900F0080000901B
:1050600000984FF4407001900220CDE90206032021
:105070000490072005900020C4F2020000F5406073
:10508000FDF776F940F2144546F22800C2F2000519
:10509000C4F202004FF000614FF480624FF480735D
:1050A00085E843002846C5E90362C5E90566C5E908
:1050B00007366E62FCF7ACFE002818BFFBF78AFDCE
:1050C000E563AC632724204600210022FDF76EFB38
:1050D0002046FDF74FFB06B070BD000070B582B0F2
:1050E000044690F8420020280AD113460A460029B7
:1050F0004FF0010018BF002B06D102B070BD00BFF9
:10510000022002B070BD00BF002622202663A262EA
:10511000A385666484F842002168E06B46F2895CEE
:1051200046F2E96E46F20D45C0F6000CC0F6000EE0
:10513000C0F600050431C0E90FCEC0E91356FDF7F3
:105140007BF838B110206064202084F842000120F0
:1051500002B070BD0196206801680191406801901D
:105160000198206930B300BF206850E8030F216820
:1051700040F4807041E80302E2B1206850E8030F78
:10518000216840F4807041E803029AB1206850E839
:10519000030F216840F4807041E8030252B1206897
:1051A00050E8030F216840F4807041E80302002AB0
:1051B000DAD100BF206850E8050F216840F00100F7
:1051C00041E80502E2B1206850E8050F216840F08F
:1051D000010041E805029AB1206850E8050F2168F6
:1051E00040F0010041E8050252B1206850E8050F87
:1051F000216840F0010041E80502002ADAD100BF31
:10520000206850E8050F216840F0400041E80502A1
:10521000F2B1206850E8050F216840F0400041E8F5
:105220000502AAB1206850E8050F216840F040004F
:1052300041E8050262B1206850E8050F216840F09E
:10524000400041E80502002A4FF00000D8D154E7A1
:10525000002002B070BD000090F84230202B1CBF2F
:105260000220704700294FF0010318BF002A01D126
:105270001846704700230363816222218285C2851C
:10528000436480F842100169006819B1C16841F4B3
:105290008071C1604169002341F001014161C16831
:1052A00041F02001C160184670470000B0B50068A9
:1052B00041F20001C4F20101884218BFB0BD40F2C2
:1052C000045440F2B655C2F20004C2F20005204672
:1052D00029460122FFF7C0FF204629460122642308
:1052E000BDE8B04000F002B8704700002DE9F04181
:1052F000044690F8410020281CBF0220BDE8F08140
:105300000D4600294FF0010000F0AA801646002A41
:1053100008BFBDE8F081002060642120984684F831
:105320004100FDF7B7F9A684E684A1680646B1F509
:10533000805F02D12069002862D02F460025E08CD2
:10534000002861D018F1010018D0B8F1000F37D152
:10535000216808E017F8010B4860E08C0138E08410
:10536000E08C002851D00868000673D5002FF1D1D9
:1053700035F8020B00276FF35F20EDE7216802E0AC
:105380000868000609D40868000606D40868000604
:105390005CBF08685FEA0060F2D51FB117F8010B27
:1053A00005E000BF35F8020B00276FF35F2048606F
:1053B000E08C0138E084E08C0028E4D125E000BFD7
:1053C000216800BF0868000608D4FDF763F9801B58
:1053D000404541D82168C868F4E700BF17B117F805
:1053E000010B04E035F8020B00276FF35F204860E3
:1053F000E08C0138E084E08C0028E3D105E000BFB8
:105400000027E08C00289DD12168086840061FD441
:10541000B8F1000F1ED018F101000FD10868400646
:1054200016D40868400613D40868400610D40868EB
:1054300040064FF00000F1D50FE000BFFDF72AF95C
:10544000801B404508D82068C16800684006F5D533
:10545000002002E0FDF71EF90320202184F841100E
:10546000BDE8F08170470000FEE70000B0B584B0F1
:1054700040F27C20C2F2000042F2000C4FF0805358
:105480004FF060610024C4F2010C4FF4403201255A
:10549000C0E90A1304210394047680F82040C16116
:1054A00080F83050C0E900C2C0E90244C0E90455A8
:1054B000FBF708FF002818BFFBF78CFB07200290C2
:1054C00040F27C20C2F200006946CDE90045FBF7BE
:1054D000F9FC002818BFFBF77DFB0120009040F28B
:1054E0007C200224C2F2000069460194FBF7EAFC2A
:1054F000002818BFFBF76EFB40F27C2000940324C9
:10550000C2F2000069460194FBF7DCFC002818BFDA
:10551000FBF760FB0420019040F27C20C2F2000007
:1055200069460094FBF7CEFC002818BFFBF752FB3E
:1055300004B0B0BDB0B58CB040F2C420C2F20000DF
:1055400042F2001C4FF080554FF060620021C4F21F
:10555000010C4FF440330124C0E90A2504250B91C6
:10556000CDE90611CDE90411CDE90211CDE9001113
:10557000017680F82010C56180F83040C0E900C392
:10558000C0E90211C0E90444FBF79CFE002818BFE3
:10559000FBF720FB07200A9040F2C420C2F2000073
:1055A00008A9CDE90854FBF78DFC002818BFFBF7CC
:1055B00011FB052008900220099040F2C420C2F29D
:1055C000000008A9FBF77EFC002818BFFBF702FBD0
:1055D000062008900320099040F2C420C2F2000087
:1055E00008A9FBF76FFC002818BFFBF7F3FA0720A8
:1055F000089040F2C4200424C2F2000008A90994D3
:10560000FBF760FC002818BFFBF7E4FA01200190CB
:1056100004900020012102900790C0F20F01ADF824
:105620001400039040F2C4200691C2F200006946C3
:105630000094FBF7D3FA002818BFFBF7CBFA0CB0A5
:10564000B0BD0000B0B584B040F20C3042F2002191
:1056500001230024C2F20000C4F20101C0F600736D
:10566000012503944FF44032047680F82040C0E9CD
:105670000A34C56180F8304080E81600C0E9034470
:105680004561FBF71FFE002818BFFBF7A3FA0A20AD
:10569000CDE9000540F20C30C2F2000069460294E8
:1056A000FBF710FC002818BFFBF794FA04B0B0BD5C
:1056B00080B582B0002043F630010190C4F20201AF
:1056C0000A6842F480020A600A6802F480020192C9
:1056D000019A00900868002240F4001008600868F1
:1056E000002100F40010009000980C20FDF75EF8F7
:1056F0000C20FDF73FF8382000210022FDF756F876
:105700003820FDF737F83A2000210022FDF74EF847
:105710003A2002B0BDE88040FDF72CB82DE9F043F7
:1057200087B0002743F63000CDE905770197C4F232
:105730000200016840F6004541F010010160016877
:10574000C4F2020501F0100101910199019701686D
:1057500005F5806641F004010160016802AC01F0CA
:10576000040101910199019701684FF0030841F08C
:1057700080010160016801F08001019101990197A8
:10578000016841F001010160016801F0010101912E
:1057900001990197016841F002010160016801F07F
:1057A0000201019101990197016841F0080101602E
:1057B0000068214600F00800019001984FF6BF7084
:1057C00002903046CDE90387FCF7D2FD4020CDE9B9
:1057D0000207304621460497FCF7CAFD4FF63C709D
:1057E000CDE90208A5F5806021460497FCF7C0FDCD
:1057F0004FF6FF40A5F50069CDE90208484621466D
:105800000497FCF7B5FD44F2FF40CDE902082846B5
:1058100021460497FCF7ACFD4FF40840CDE90207A0
:105820000126284621460496FCF7A2FD4FF440507D
:1058300002904FF40410CDE9030628462146FCF7F8
:1058400097FD4FF4807002900220A5F54065CDE9E8
:10585000030728462146CDE90577FCF789FD4FF47B
:105860001840CDE90208284621460497FCF780FD40
:105870004FF440700290122003A981E881010420B6
:10588000069048462146FCF773FD2820002100229F
:10589000FCF78CFF2820FCF76DFF07B0BDE8F08314
:1058A000B0B590B040F2004540F27440C4F200053B
:1058B0000021C2F2000040F2833240F2CF73CDE902
:1058C0000811CDE90611CDE90411C0E90052C0E983
:1058D000021301618161FEF7B5FD002818BFFBF7D7
:1058E00079F940F27440C2F2000008A9FDF794FC77
:1058F000002818BFFBF76EF9602001900020CDE969
:105900000200059040F27440C2F2000001A900229A
:10591000FEF7B4FB002818BFFBF75CF940F27444B3
:10592000C2F2000401A920460422FEF7A7FB0028CA
:1059300018BFFBF74FF92068A84201D010B0B0BDE6
:10594000002043F630010B90C4F202010A6842F0D5
:1059500004020A60096801F004010B910B99C0214F
:105960000B910221CDE90C10CDE90E0105F50130B6
:105970000BA9FCF7FDFC10B0B0BD000080B586B0EF
:105980002020009040F2BC4040F200420021C2F2D0
:105990000000C4F20102A72342F20F7C0591CDE979
:1059A00003110191C0E90023C0E9021CC0E9041100
:1059B0008161FDF7F9FC002818BFFBF70BF94FF4E4
:1059C0008050029040F2BC40C2F2000002A9FDF7F4
:1059D000DDFE002818BFFBF7FDF840F2BC40C2F224
:1059E00000006946FDF718FC002818BFFBF7F2F825
:1059F00006B080BD80B540F2045041F20001C2F211
:105A00000000C4F2010100234FF00C0C4FF4E1320E
:105A100080E80E00C0E90333C0E905C3C361FFF7A6
:105A2000F1F9002808BF80BDBDE88040FBF7D2B87F
:105A300080B540F24C5044F60001C2F20000C4F2BE
:105A4000000100234FF00C0C4FF4E13280E80E000F
:105A5000C0E90333C0E905C3C361FFF7D3F90028E8
:105A600008BF80BDBDE88040FBF7B4B8FEE700008A
:105A7000FEE7000040F21401C2F2000100EE100A3D
:105A800091ED071AB8EEC00A91ED045A31EE001AF2
:105A9000B1EE457AB4EE451A81ED050A91ED002A82
:105AA00091ED013A91ED024A91ED036AF1EE10FA9F
:105AB000B4EE471AC8BFB0EE451AF1EE10FAB8BFFF
:105AC000B0EE471A91ED065A81ED071A30EE455AAD
:105AD00021EE031A22EE002A32EE011A24EE052AE4
